:020000040800F2
:10000000600F002089010008890B0008890B000897
:10001000890B0008890B0008890B0008890B000870
:10002000890B0008890B0008890B0008890B000860
:10003000890B0008890B0008890B0008890B000850
:10004000890B0008890B0008890B0008890B000840
:10005000890B0008890B0008890B0008890B000830
:10006000890B0008890B0008890B0008890B000820
:10007000890B0008890B0008890B0008890B000810
:10008000890B0008890B0008890B0008890B000800
:10009000890B0008890B0008890B0008890B0008F0
:1000A000890B0008890B0008890B0008890B0008E0
:1000B000890B0008890B0008890B0008890B0008D0
:1000C000890B0008890B0008890B0008890B0008C0
:1000D000890B0008890B0008890B0008890B0008B0
:1000E000890B0008890B0008890B0008890B0008A0
:1000F000890B0008890B0008890B0008890B000890
:10010000890B0008890B0008890B0008890B00087F
:10011000890B0008890B0008890B0008890B00086F
:10012000890B0008890B0008890B0008890B00085F
:10013000890B0008890B0008890B0008890B00084F
:10014000890B0008890B0008890B0008890B00083F
:10015000890B0008890B0008890B0008890B00082F
:10016000890B0008890B0008890B0008890B00081F
:10017000890B0008890B0008890B0008890B00080F
:10018000890B0008890B000808B500F03BF800F067
:10019000C3F900F0C7F8412000F0B2F9144B154A3A
:1001A000934203D2002243F8042BF8E7422000F0E8
:1001B000A7F9114A114B12498B4204D252F8041F7D
:1001C00043F8041BF7E7432000F09AF900F06AFBBC
:1001D000442000F095F900F0EDFE462000F090F983
:1001E0000D2000F08DF90A2000F08AF900F0E4FEFD
:1001F00068000020640B0020840901080000002032
:100200006800002013B53A4A3A48136843F00103E6
:100210001360394B00241C60116821F0847121F4B3
:100220008031116035490160116821F4802111602D
:1002300033490C60116841F480311160314A0192F8
:10024000019A002A06DD2A4A1268940302D4019A10
:10025000013AF4E7019A2C49002A16DC2B4A13686C
:100260006FEA53236FEA43231360294B1A681A601D
:100270000B68284A43F080530B60136843F48043B3
:1002800043F01003136002B010BD0A68224C42F024
:1002900080520A60226842F4804222601A6822F08A
:1002A000F0021A601A6822F4604242F400421A60B6
:1002B0001A6822F4E05242F4A0521A60174A02600F
:1002C0000B4A106840F08070106010688001FCD507
:1002D000134A40F2056010601A6822F0030242F0EF
:1002E00002021A601A6802F00C02082AFAD1B5E775
:1002F0000038024004380240083802401030002420
:100300000C38024014821900403802403038024054
:10031000343802404438024000700040195440070D
:10032000003C02407047C0F30313082B09D8054A6C
:1003300000F00F0052F82320012301B91030834050
:100340009361704768E500082DE9F047C0F3031694
:10035000082E044600F2AA80564B53F8265000F4AB
:100360004023B3F5002F00F00F0712D0B3F5402F54
:100370000CD0B3F5802F02D04FF0000E0BE0C0F38D
:100380000021FFF7D0FF4FF0010E04E04FF0030E05
:1003900001E04FF0020EEFF3108072B603234FEA34
:1003A000470C2A6803FA0CF3DB431A400EFA0CF1EF
:1003B0000A43BEF1030F2A600AD004F44032B2F5BA
:1003C000803F07D0B2F5003F0CBF0222002202E0BE
:1003D000002200E00122E96802FA0CF219400A4307
:1003E000BEF1020FEA600CBFC4F303320022072FF4
:1003F0008BBF4FF024084FF02008A7F108013946C1
:1004000058F805A089004FF00F0909FA01F92AEA06
:1004100009098A4049EA020248F805200EF1FF382E
:10042000B8F1010F12D804F44062B2F5006F09D0A0
:10043000B2F5406F08D0A2F58069D9F1000242EB15
:10044000090204E0022202E0032200E00022A9687F
:1004500002FA0CF219400A43AA600123B8F1010F15
:100460006A6803FA07F303D8A10501D5134301E035
:1004700022EA0303BEF1010F6B6010D0E3050ED535
:1004800004F00C070C4D04F003047959A4000F2369
:10049000A34021EA030206FA04F313437B5110F050
:1004A000010F00D162B60020BDE8F0876FF01500A3
:1004B000BDE8F08768E5000808380140C0B2FFF7E2
:1004C00043BFC0F30313082B0CD8074A52F823305C
:1004D00000F00F001A69012383401A4214BF012063
:1004E000002070470020704768E50008034B012298
:1004F0001A601A68D205FCD5704700BF2038014049
:10050000034B1B685B06FBD5024B1860704700BFAE
:10051000001001400410014008B5002110221548C8
:1005200000F01AFB1448FFF70FFF1448FFF70CFF09
:10053000134A1449136823F47D53136052F8043CA2
:1005400023F4BB5323F01C0342F8043C0B6823F450
:10055000E06323F001030B600B4B40F2D9211960DB
:1005600052F8043C43F4005343F00C0342F8043CBB
:1005700008BD00BF44380240097C09000A7C09001C
:1005800010100140141001400810014010B5826C99
:100590008186D36801F4D07423F4D0732343D360ED
:1005A000826C536901F0010123F001031943516189
:1005B00010BD10B5EFF3108472B6FFF7E7FF14F02B
:1005C000010F00D162B610BD10B5EFF3108472B602
:1005D00041B1826CD368526903F4D07302F0010216
:1005E00013430B800021FFF7D1FF14F0010F00D15E
:1005F00062B610BD6FF018007047836A9A6C50683D
:10060000DA8E40EA02420A600022DA86C0B27047FF
:1006100010B5806AEFF3108472B6838E11B143F087
:10062000200104E023F4907121F0010189B2FFF769
:10063000C0FF14F0010F00D162B610BD836A9B6C3D
:100640001868C0F340107047836A9B6C596070470C
:10065000836A9B6C1868C0F3C010704738B50446B5
:10066000806AEFF3108572B6838E41B143F080014A
:1006700089B2FFF79EFF204602F0D4FA05E023F08E
:1006800080010904090CFFF794FF15F0010F00D158
:1006900062B638BD10B5846A94F8400000F0D0FB13
:1006A000002194F840000A46BDE8104000F094BDD7
:1006B00038B5846A064994F84000224600F08CFD63
:1006C000054618B994F8400000F0CCFB284638BD28
:1006D000D506000838B5144622B9154840F20B710A
:1006E00000F05AF94FF48075A26C13689BB299061A
:1006F000E38607D5A18E880604D5204602F0CAFA03
:10070000012304E013F00E031CBF53680023E28EA4
:10071000110606D5A28E120603D5204602F082FAF3
:100720000123013D01D0002BDED1002038BD00BFE8
:10073000D4E5000870B5846A0646002584F8385070
:1007400020462946FFF740FFB36A9A6C0B4B9A424A
:1007500004D10B4810212A4600F0FEF9A26CD368A0
:1007600023F4005323F00C03D360E06CFFF7A6FEE4
:10077000206DBDE87040FFF7A1BE00BF0010014032
:100780004438024070B5846A3B4BA26C9A420546DD
:1007900004D13A480021102200F0DEF9E06CFFF7A6
:1007A000D3FD206DFFF7D0FDA26C94F83B101369C8
:1007B00023F47D5309B143F400531361A26CD36851
:1007C00023F4BE73D360A26C536923F4E06323F077
:1007D00001035361A96A8E6CC86BF3684A6C4008C8
:1007E000B2FBF0F0450900F1010206BF050943F430
:1007F000004323F40043F3600BBFA2EB0512A2EB0E
:10080000451252085208886C42EA0512826091F83B
:100810003920012A23F4B05302D143F4C06303E02A
:10082000022A08BF43F4806391F83A00092802D0F5
:10083000082802D10AB143F480538A6CD3608A6CD1
:1008400091F83B00136923F4405308B143F400537B
:1008500013618A6C536923F440735361A26CD368AB
:1008600043F4005343F00C03D36000200123A0861F
:1008700084F8383070BD00BF001001404438024099
:100880000138052809D8064B53F8200030B190F8FC
:100890003830002B08BF002070470020704700BF91
:1008A0008CE5000810B50024064B53F8240010B165
:1008B0000021FFF789FE0134062CF5D10248BDE87E
:1008C00010405FE78CE500080000002030B50E49BD
:1008D0000E4885B002F0B8F868460D4902F057FDA1
:1008E00000231C460B4A52F8241039B15D1C68469F
:1008F00030338DF8093002F0A7F82B460134062C6E
:10090000F0D105B030BD00BF00000020E8E50008D0
:10091000F5E500088CE5000813B504460DF1060165
:100920000948FFF751FE0A2C02D10D20FFF7E8FD20
:10093000E0B2FFF7E5FD0448BDF80610FFF739FE09
:10094000204602B010BD00BF0000002030B50D46AB
:1009500089B020F01F04AC4217D22368009363686B
:100960000193A3680293E368039323690493636983
:100970000593A3690693E36907930020234604497E
:10098000044A02F061FD2034E5E709B030BD00BF44
:1009900034E6000800E6000880B588B005460E463B
:1009A00000F0D2F808B1574B00E0574B1C68CC342C
:1009B00002F0A4F900205549554A00962B460194AF
:1009C00002F042FD00F0C0F808B14E4B00E04E4B83
:1009D0001D68504B6E461C681F461CB94E484E4C55
:1009E00000F0C8F8E36AD4F83090D4F83480D4F832
:1009F00038C0D4F808E0E068216962690692CDF851
:100A00000090CDF80480CDF808C0CDF80CE004903B
:100A1000059100204149424A02F016FDA369D4F82D
:100A20001C90D4F82080D4F824C0D4F83CE020688E
:100A3000216C626C069204900591CDF80090CDF87F
:100A40000480CDF808C0CDF80CE000203549344AC8
:100A500002F0FAFCA36C6168EFF3148200208DE8C9
:100A6000060031492E4A02F0EFFCA36A2F492C4AB6
:100A7000002002F0E9FCB5F90C302BB92C4B1C68B6
:100A80004FF48065043C01E02C6BAD6A29492A4A89
:100A90000020334602F0D8FC00202849264A23468D
:100AA00002F0D2FC2B4600202549234A02F0CCFC60
:100AB000A642A4EB050501D8AE4206D80020214984
:100AC0001D4A02F0C1FC284600E030462146FFF7EF
:100AD0003DFF02F013F902F011F93B681BB1EFF38F
:100AE000108372B60CE000F02FF808B1054B00E05F
:100AF000054B1B681B68002BF1D0012000F082FD24
:100B0000FEE700BF80060020CC05002067E6000855
:100B10000DE60008B8050020680200209AE60008EB
:100B200017E60008CBE60008FCE6000828E7000806
:100B300064E500083EE7000827E6000854E70008DF
:100B40006AE7000880E70008024B1868003018BF09
:100B500001207047B805002010B5EFF3108472B67D
:100B6000036823EA01010A43026014F0010F00D177
:100B700062B610BD01464FF0000000DF01F12C020B
:100B80004FF0010313607047EFF305801EF0040F70
:100B900002D0EFF309818D466A4602F12002EFF39D
:100BA00010832DE9FC4F69466C4624F007029546F8
:100BB00000F0ECF92146884209D000F12C01B1E89F
:100BC000F00F016821E9F00FB0E8FC4F01E0B1E857
:100BD000FC4F1EF0040F0CBF81F3088881F30988D5
:100BE00083F310887047000008B5EFF3108372B6E6
:100BF00003200449044A02F027FC0448D321FFF7EC
:100C0000CBFE00BF13E80008BCE7000834E800088A
:100C100008B5EFF3108372B603200449044A02F0CA
:100C200013FC0448CB21FFF7B7FE00BF45E80008DE
:100C3000CBE7000834E8000808B5EFF3108372B67C
:100C400003200449044A02F0FFFB0448C321FFF7D4
:100C5000A3FE00BF6AE80008DCE7000834E80008EB
:100C600008B5EFF3108372B6054B06491B68064AB8
:100C7000032002F0E9FB0548BB21FFF78DFE00BF12
:100C800028ED00E088E80008E9E7000834E80008FB
:100C900008B5EFF3108372B6054B06491B68064A88
:100CA000032002F0D1FB0548B321FFF775FE00BF1A
:100CB00028ED00E0B1E80008FAE7000834E8000891
:100CC00008B5EFF3108372B603200449044A02F01A
:100CD000BBFB0448AB21FFF75FFE00BFD8E800086C
:100CE00009E8000834E8000810B5841E5F2C03D919
:100CF0001748FD21FFF750FE0F280DDD1038441175
:100D000003EB840303F1604303F561430B6000F0E0
:100D10001F00012383400FE00E4B0B60042802D11B
:100D20004FF4803308E0052802D14FF4003303E08C
:100D3000062804D14FF480231360002010BD0F2833
:100D400003D1054B0B600123F6E74FF0FF3010BDD8
:100D500034E8000824ED00E010E000E0294A4FF0FC
:100D6000FF3310B5136053609360274B274A1A6016
:100D7000274A4FF08033136053609360254B1B6804
:100D80000133DB00A2F6181213F1FF3304D34FF046
:100D9000803142F8041BF7E700241F4B1F491C60F9
:100DA00022460B2000F018FA22461D49032000F0CD
:100DB00013FA22461B49022000F00EFA22461A4975
:100DC000042000F009FA22461849052000F004FA30
:100DD00022461749062000F0FFF9224615490E2049
:100DE00000F0FAF9224614490C2000F0F5F92046EB
:100DF0001249224600F0F0F9F02383F3118862B61D
:100E000010BD00BF80E100E008ED00E00000000838
:100E100018ED00E004E000E0B8050020290F00080C
:100E2000890E0008C10C0008E10E0008910C0008B2
:100E3000610C0008390C0008110C0008E90B0008CF
:100E400013B58023694601AA0446FFF74DFF38B960
:100E5000009B01990F2CD7BF1A6819608A431A604A
:100E600002B010BD13B50023694601AA0446FFF77E
:100E70003BFF30B99DE80C000F2CDCBF11680B4321
:100E8000136002B010BD704738B54B6C0E4D9C1E00
:100E9000AC420BD30D4DAC4208D233F8023CB3F553
:100EA0005F4F03D1BDE8384000F03EB8EFF3108348
:100EB00072B6074B07491B68074A002002F0C4FAC4
:100EC00006489421FFF768FD000000087D0901082D
:100ED0002CED00E000E90008F3E800081FE9000835
:100EE00007B5EFF3108372B6094C0A490020224679
:100EF00002F0AAFA084B094A1B6812680092002007
:100F00000749224602F0A0FA06485A21FFF744FD9D
:100F100036E9000842E9000828ED00E034ED00E081
:100F200069E900088AE9000838B50C4619B1154D81
:100F30002B68994202D0144885210AE0CB6A012B24
:100F40000DD002D3022B0FD01AE0086B18B90E484F
:100F5000B421FFF721FD4C2202F059FA10E00B6B8F
:100F60006BB90948CD21F4E7086B08B14B6B13B995
:100F70000548E421EDE74C2202F049FA636B2B604F
:100F8000002038BDB8050020A0E90008F8B5074CDE
:100F900007460D4626682160FFF775FF384629464B
:100FA00000F03AF920682660F8BD00BFB8050020BF
:100FB0000020704770477047634D644A644E0123B8
:100FC00083B52B70002313605360624A1360536033
:100FD000614A13605360614A13605360604A136052
:100FE0005360604A136053605F4A136053605F4A06
:100FF0001360536033805E4A002799189F5008336E
:101000004FF6FF70802B8880F5D13388594C31889A
:1010100003F00F03204642F8334002EBC30204F111
:10102000CC0891803946F02202F0A9F93388A381D7
:10103000514B23611F22032663615049A676062384
:101040004046A38302F0D1F904F1F0033F49C4F80C
:10105000EC30204684F8EB70C4F8F080C4F8F470EB
:1010600002F09DF8464B20461C6002F04BFC022328
:10107000684601A92B7002F0E7FB9DE8030002F02F
:1010800019FA404B2E700BB100F07AFB3E4B0BB1BE
:1010900001F05AFA3D4B0BB108F096FF3C4B0BB1F7
:1010A000AFF300803B4B0BB101F04AF83A4B0BB168
:1010B0000AF040FA394B0BB109F0B0FA06F0BCF96E
:1010C00002F00AFC04232B702A4D08F04FFF28463B
:1010D000217F00F0B7FA002803DA314840F2FA2104
:1010E00007E0284600F0F0FA002804DA2C4840F225
:1010F0000B31FFF751FC284600F0D6FA002803DA3E
:10110000274840F21231F4E7AB6801221A7002203E
:1011100001F008FE0C4B05221A7000F043F800287D
:101120000CDA1F484FF44E71E3E702F0CBF918B91F
:1011300000F0A4F802F0CCF902F098FB00F0B4F84B
:101140000028F9D0F1E700BF76060020CC0500208A
:10115000740600206C060020C4050020E405002071
:10116000D4050020BC050020DC0500207806002006
:10117000EC050020B4020020B90F0008B4E9000813
:10118000800600208117000849250008C99F000833
:10119000000000004121000835B500081DA6000828
:1011A00008EA000813B5002400940848084B64219D
:1011B0004FF4006200F0D8F8A04204DC054840F289
:1011C0001311FFF7E9FB204602B010BD18EA000832
:1011D000913B00081DEA0008612870B505460C46E1
:1011E00013D8EFF3108672B619B9FFF729FE22461D
:1011F000074C084840F8354000EBC500426016F047
:10120000010F00D162B6002070BD6FF0150070BDF7
:101210005512000884060020612808B507D8094A3D
:1012200052F830302BB102EBC002526803E00022CA
:1012300000E01A46044B9847044B1A68044B1A60A6
:1012400008BD00BF8406002055120008CC05002010
:101250008006002008B50346EFF3108272B6032023
:101260000349044A02F0F0F803484121FFF794FBD8
:1012700042EA00082FEA000855EA000810B50948BC
:1012800003686BB1EFF3108472B601F06DFF14F0D8
:10129000010F00D162B60028F1D002F01FF9EEE78D
:1012A00010BD00BF78060020024B1868003018BF40
:1012B00001207047780600202DE9F7430746F0200B
:1012C0000E469046994602F015F90546002840D092
:1012D000314600F0B7F9041E35DB284600F01CFA51
:1012E000041E30DB28464946324602F0C1FA041E8D
:1012F00029DB009628464146184A0A9B00F088F8E8
:10130000041E20DB39460B9A284600F0E3F82846F5
:1013100000F0CAF9041E16DB2846AC8900F044F937
:1013200000280EDA00F07CF904686442002C03DB2C
:101330000B48A721FFF730FB28460A4901F03BFF85
:1013400001E020B207E02846314600F029FA2046A5
:1013500001E06FF00B0003B0BDE8F083C115000899
:101360006DEA0008DC05002037B50D4614460093F1
:10137000069B019300212A462346FFF79DFF03B0F9
:1013800030BD13B5049C0094FFF7EEFF041E05DA90
:1013900000F046F9644204604FF0FF34204602B08A
:1013A00010BD37B50D4614460093069B01930221EC
:1013B0002A462346FFF780FF03B030BD38B5054607
:1013C00000F018FA1021104A138801339BB218B2AA
:1013D00000281380DCBF0123138003F00F000B4AA9
:1013E00052F830404CB942F8305002EBC0029380C2
:1013F000AB8100F017FA204638BD0139E3D100F087
:1014000011FA4FF0FF3038BD74060020EC050020C3
:101410002DE9F04104460E4690461F46FFF7CEFFE9
:10142000054610BB9DF81830C4F8108003F0030285
:10143000A38B676123F003031343F1B2A38304F189
:101440003802217661760320294600F01FFA2046F3
:10145000A57602F057FA00F0CDF92046044901F0D4
:101460009EFE0423A37600F0DDF92846BDE8F08156
:10147000DC0500202DE9F04104460E4690461F464B
:10148000FFF79CFF0546F8B9A38BC4F8108023F042
:10149000030343F00103F1B2A38304F13802217680
:1014A000617667612946032000F0F0F92046A576B1
:1014B00002F028FA00F09EF92046054901F06FFE7F
:1014C0000423A37600F0AEF92846BDE8F08100BF02
:1014D000DC0500202DE9F84F314B064600F1CC0920
:1014E000002908BF1946154648461F22002401F06E
:1014F0007CFF86F8EB40484601F06FFF471C0DB9B2
:101500002C4612E055F8240078B101F066FFB36A6A
:10151000013007449F423FD2013440F201139C4204
:10152000F0D16FF00600BDE8F88F0234A400304619
:10153000E11902F0A7FA824620B91A4840F2372191
:10154000FFF72AFA00EB0408C0F80080484601F0D3
:1015500044FF49460746404601F019FF0137083C61
:101560004744D146043D5444A1450ED049F8047F78
:1015700055F8040F01F031FF8346296838460BF116
:10158000010B01F004FF5F44EEE7002048F8040C73
:10159000C6F8ECA0BDE8F88F6FF05A00BDE8F88FF0
:1015A00080EA000889EA000810B5EFF3108472B6EB
:1015B00002F07CFA14F0010F00D162B6002010BDD9
:1015C00008B50E4B1B689A8B02F00302012A03D167
:1015D0000B485F21FFF7E0F9D3F8EC10012051F838
:1015E000202032B1013040F201129042F7D10120A7
:1015F00001E05B69984700F005F800BFCC050020CA
:101600009BEA000808B5054B1B68C4B22146184682
:10161000002200F052FB204602F04CF9CC050020DD
:1016200008B5FFF791FA38B9044B186820B1837EEA
:10163000032B01D16C3008BD014808BDCC0500204A
:10164000AC030020F8B5064608B184681CB1154803
:10165000B421FFF7A1F94FF4F27001F04BFF0546FA
:10166000E0B1B06000F080FB071E05DA284601F00B
:1016700035FFB4603846F8BD214605F10C00012263
:10168000043501F0A6FD21462246284601F0A1FDC1
:101690002846214601F0B8FD2046F8BD6FF00B004A
:1016A000F8BD00BFADEA000808B508B1836823B9EA
:1016B00004484FF49371FFF76FF901225A7000202C
:1016C00008BD00BFADEA000838B50446806818B907
:1016D0000F485221FFF760F9343005F0D4FE0D4871
:1016E000032106F0FDF9051E0BD1012106F0AAF831
:1016F0002846022106F0A6F82046BDE8384000F052
:101700009BBB01DD06F08CF86FF0160038BD00BF02
:10171000C2EA0008E8E50008F8B50546806810B997
:101720001548D32106E0AB8B03F00303012B03D153
:101730001148D521FFF730F9343005F0A4FE0F4BE6
:101740001A68AB680BB1946814B90B485F21F1E7D4
:1017500003F1380738340026A3681BB12046B919B5
:1017600005F0B8FE1036802E04F11004F4D128469E
:10177000BDE8F84000F060BBDFEA0008CC050020BF
:101780000023054A05489850991808330022B3F5FC
:10179000447F4A60F5D17047840600205512000846
:1017A00038B50D460446F0B1104B1BB1B0F90C0032
:1017B000AFF30080A38953B10D4A03F00F0300215A
:1017C00042F8331002EBC3034FF6FF729A80E36ACC
:1017D0001BB12046294602F0D1F8204600F0FAFA63
:1017E000204600F0C3FB002038BD00BF0000000011
:1017F000EC05002010B5094B1C686CB1FFF7A4F98B
:1018000050B9E38B1AB27E2A04DD05484FF4967175
:10181000FFF7C2F80133E383002010BDCC050020A0
:10182000FCEA000870B5174B1C681D463CB3FFF777
:101830008BF920BBEFF3108672B6E38B1AB2002A45
:10184000C4BF03F1FF33E383B4F91E30002B12DC75
:101850000023E3830C4B1B680BB102F06BF8A38BE6
:1018600003F06003202B06D1236A23B92B689C4226
:101870001CBF1423236216F0010F00D162B60020B2
:1018800070BD00BFCC0500206C060020F8B5164BDB
:101890001D68174606460C46FFF7ACFFAB6B07B159
:1018A0003B60ECB1EFF3108272B6022E07D0032E2C
:1018B0000AD0012E0CD1A96B23680B4305E02168E7
:1018C000AB6B23EA010300E02368AB63002401E073
:1018D0006FF0150412F0010F00D162B600F014F899
:1018E000FFF7A0FF2046F8BDCC05002010B5FFF79C
:1018F000CDFF041E05DAFFF793FE644204604FF04B
:10190000FF34204610BD00BF37B5174B1D68FFF7E9
:1019100071FF2846AC6B00F07BFCE443044001946B
:101920001CB9FFF77FFF20461CE001A800F062F819
:10193000431C044610D0214601A801F09AFC214620
:10194000284600F013F8044630B12846211D00F067
:1019500061F8204600F02EF8019B002BE5D1FFF73F
:1019600061FF012003B030BDCC05002038B583688D
:101970001BB90F484C21FFF70FF8EFF3108572B633
:101980005C6A002074B122798A4202D02046246821
:10199000F8E703F1240110B101F0F0FB02E0084682
:1019A00001F0E2FB15F0010F00D162B6204638BD10
:1019B0000FEB000810B5037B23B9EFF3108472B668
:1019C0000A4905E0022B0AD1EFF3108472B60849E8
:1019D00001F0AAFB14F0010F00D162B610BD012B7B
:1019E00003D1BDE8104000F0C1BA10BDB409002019
:1019F000AC09002038B5054600242846214601F0F0
:101A00004BFC28B90134202CF7D14FF0FF3038BD02
:101A1000204638BD2DE9F0410E46044600B119B903
:101A20006F484FF49B712AE03830097801F034FC9C
:101A30008046002871D0EFF3108772B6A37E062B84
:101A400015D104F13C00317801F026FC78B1314623
:101A5000082204F15000002501F0D9FCE56320467E
:101A600002F024F817F0010F00D162B6B5E017F0CC
:101A7000010F00D162B6A5681DB95948EE21FEF7E5
:101A80008BFF3278EFF3108372B6686A20B1017968
:101A9000914201D00068F9E713F0010F00D162B65E
:101AA00028B131460822043001F0B1FC8FE0FFF785
:101AB0004BF860B14B4801F057FB0446D8B94A488F
:101AC00001F052FB0446002800F0838013E0EFF39E
:101AD000108772B6434801F047FB044617F0010F28
:101AE00000D162B638B9102001F0FEFC044600288F
:101AF0006FD001230373201D3146082201F087FCBB
:101B0000EFF3108672B6204605F1240101F00CFBBC
:101B100016F0010F00D162B659E0FFF76BFEA06826
:101B200010B92F485221AAE7317800F09FFB0746F1
:101B3000E0B14368E3B100F0ABFB0546D0B17B6890
:101B40004360BB688360314608220C3001F05FFCC3
:101B5000EFF3108772B6284604F1400101F0E4FA71
:101B600017F0010F00D162B6454605E0054603E0D7
:101B70001D4601E06FF00B05FFF754FEEFF31087F1
:101B800072B61A49204601F009FFA37E062B0AD13E
:101B900004F150003146082201F039FC0023E363D0
:101BA000204601F083FF17F0010F00D162B6A37E3B
:101BB000052B03D12046042100F08AFAA37E073BBF
:101BC000012B0AD82046042100F080F905E0002509
:101BD00003E003484FF4887151E72846BDE8F081DF
:101BE00030EB0008B4090020AC0900200D1C0008EF
:101BF00010B50C4600F0DAF920B12146BDE81040DE
:101C0000FFF708BF6FF0020010BD00BF2DE9F84FCD
:101C10000446EFF3108B72B6A68B06F48076B6B24C
:101C20001FFA8BF52EB904F1400001F09DFA07462A
:101C300028B915F0010F00D162B6BDE8F88FA38B6B
:101C400004F1480843F48073A383414601F06CFA21
:101C5000BD68D4F838903A7BD4F86CA049EA050303
:101C6000012595401D43A5631BF0010F00D162B60D
:101C70003946324611F80C0F7B689847EFF310860F
:101C800072B6A38BC4F86CA023F48073A383A36BF8
:101C90005D4029EA05092B4049EA0303A36338465E
:101CA000414601F04BFA16F0010F00D162B6FFF782
:101CB0002BFE384600F010FBABE7F8B5838B9B0595
:101CC00004460E4617462ED400F02EF8A5680DB92E
:101CD000FFB916E0A38B03F00303012B03D0AB681D
:101CE0000BB136021E606B78012BF1D10023AB6083
:101CF000EB70AB881BB2002BEADA281D00F08CF9E0
:101D0000F7E7A06828B14378012B02D1B83001F081
:101D1000CCFA204600F05EF8204600F0FDFAA38BD6
:101D200043F40073A383F8BD10B5044600F008F82F
:101D3000204600F0AFF92046BDE8104000F0A4B8FE
:101D400038B50446EFF3108572B6406A30B100F042
:101D50000DFB606A00F040FB0023636215F0010F89
:101D600000D162B638BD00002DE9F041174B07469F
:101D70001E6810B10EB1B3681BB915485521FEF7A6
:101D80000BFEFFF737FDB468D4B1236BBBB1E56A36
:101D90005DB1284601F0A8FB804648B1B3682A46E9
:101DA000196B01F034FB002405E02C46A84602E044
:101DB0006FF00B040546FD62C7F8308000E01C465A
:101DC000FFF730FD2046BDE8F08100BFCC050020C4
:101DD00046EB000838B5054620B9164840F29B117D
:101DE000FEF7DAFD846824B36378012B02D9013B46
:101DF00063701CE0204600F0A6FA204600F096F83A
:101E000004F1340005F04EFB204601F019F920469C
:101E100000F018FB204600F02DF8A37823B12378BA
:101E200043F00803237002E0204600F09FF80023EF
:101E3000AB6038BD58EB000810B5044608B18068A7
:101E400018B90B484821FEF7A7FD01F0D7F8224644
:101E50000121002006F07CF922460621012006F02F
:101E600077F906212246022006F072F9002010BD03
:101E70006CEB000810B50446D4F8DC0118B121461B
:101E800006F0E0FBF8E710BD08B5837E072B0BD109
:101E9000826D1AB1538A19B2002902DC0A48552111
:101EA0000CE0013B538208BD082B0BD1826D1AB1A7
:101EB000138A19B2002903DC03485F21FEF76CFD89
:101EC000013B138208BD00BF87EB000838B5EFF374
:101ED000108472B6827ED31F012B1FD8836D13B975
:101EE0001148622109E00025072A85650AD15A8A2E
:101EF00015B2002D03DC0C486A21FEF74DFD013AB6
:101F00005A8208E01A8A15B2002D02DC06486F21B9
:101F1000F3E7013A1A82C16601F0C8FD14F0010F1F
:101F200000D162B638BD00BF9BEB000838B504464F
:101F300018B90D484C21FEF72FFD25696DB12846D3
:101F400050F80C3B236100F04DF805F10A0000F059
:101F500049F8284600F00AF8EFE704F10C00BDE864
:101F6000384000F03FB800BFAFEB000838B504467A
:101F7000FEF7EAFD58B1EFF3108572B60949204625
:101F800001F0D2F815F0010F00D162B638BD01F0B2
:101F900099FA0028EFD1204601F0A0FABDE83840B8
:101FA00001F096BA78060020704700BF002810B5EF
:101FB00013DB00F00F02EFF3108172B6084B03EB56
:101FC000C204B4F9044084420CBF53F8320000202C
:101FD00011F0010F00D162B610BD002010BD00BF8E
:101FE000EC05002030B103881BB2002B05DB012378
:101FF000038002E06FF0150070470020704710B5B5
:10200000FFF7F0FF041E05DAFFF70AFB64420460E5
:102010004FF0FF34204610BD10B528B3EFF3108405
:1020200072B6038847F6FF721BB2934203D1104881
:102030007921FEF7B1FC038801339BB2038003884A
:102040001BB2002B0ADC0B4B1B683BB15A6B824264
:10205000FAD100225A63184601F028FD14F0010F4E
:1020600000D162B6002010BD6FF0150010BD00BF9A
:10207000C9EB0008C405002010B5FFF7CDFF041E12
:1020800005DAFFF7CDFA644204604FF0FF342046D2
:1020900010BD00BF08B5EFF3108172B6837E052B2B
:1020A0000FD1426B1AB113881BB2002B03DB074818
:1020B0006321FEF771FC138801339BB21380002368
:1020C000436311F0010F00D162B608BDDEEB0008DA
:1020D00038B5EFF3108572B6837E052B12D1446BB1
:1020E0001CB123881BB2002B03DB09486221FEF7D9
:1020F00053FC238801339BB2238000234363C166D2
:1021000001F0D4FC15F0010F00D162B638BD00BF5C
:10211000F6EB000838B54FF4A07001F0E5F9064B76
:1021200000F5A074186000F11405044900F0FCFFEC
:10213000A5422846F7D138BDB003002094090020FD
:102140002D4AF8B50023136053602C4A1360536086
:102150002B4A136053602B4A136053602A4A4FF492
:10216000C0701360536001F0BFF9054600F5C074FC
:10217000002300F118060375204900F0D5FFA642A0
:102180003046F5D1214CC020656001F0ADF905461F
:1021900000F1C006022300F118070375184900F08A
:1021A000C3FFB7423846F5D1A560FFF7B3FF4FF440
:1021B000807001F099F9054600F58076002300F162
:1021C000100703730F4900F0AFFFB7423846F5D14F
:1021D0008020E56001F088F9054600F180060223C1
:1021E00000F110070373084900F09EFFB74238461C
:1021F000F5D12561F8BD00BF940900209C0900209D
:10220000A4090020B4090020AC090020B00300207C
:1022100037B583681BB90C486521FEF7BDFB00226A
:102220000192EFF3108572B65C6A2CB1217901A896
:1022300001F00EF82468F8E715F0010F00D162B63E
:10224000019803B030BD00BF0EEC000810B5064B7E
:1022500004461B6828B11846FFF7DAFF206000200B
:1022600010BD4FF0FF3010BDCC05002038B50D4635
:10227000044650B1FFF7BEFAE46924B1237CAB42B7
:1022800001D02468F9E7FFF7CDFA204638BD0000F9
:1022900010B5FEF759FC40B10D4800F065FFA8B934
:1022A0000C48BDE8104000F05FBFEFF3108472B639
:1022B000074800F059FF14F0010F00D162B628B9A9
:1022C000182001F011F908B10123037510BD00BFFA
:1022D0009C090020A409002010B5037D23B9EFF369
:1022E000108472B60A4905E0022B0AD1EFF310847C
:1022F00072B6084900F018FF14F0010F00D162B661
:1023000010BD012B03D1BDE81040FFF72FBE10BD5B
:102310009C090020A409002010B5044604F14000E7
:1023200000F022FF10B1FFF7D7FFF7E704F14800F4
:1023300000F01AFF10B1FFF7CFFFF7E74FF0FF32C1
:10234000A263E06310BD10B5044604F11C0000F068
:102350000BFF10B100F088F8F7E704F1240000F05B
:1023600003FF10B1FFF726FBF7E710BD38B50446B1
:10237000EFF3108572B658B1037BDB0708D5144B19
:102380001B6800203BB1A34209D018461B68F9E73F
:102390006FF0150017E00F486F21FEF7FDFA236874
:1023A0001BB19968A2680A449A6018B1084900F004
:1023B000E5FE02E0064800F0D7FE237B002023F074
:1023C00001032060237315F0010F00D162B638BD00
:1023D000C809002023EC000838B5044610B9164897
:1023E000532121E0EFF3108572B6037BD90701D5A5
:1023F000FFF7BCFF237B9A0707D515F0010F00D12B
:1024000062B62046FFF7B2FD14E05B070ED420460B
:102410000A4900F089FE0A4A138801339BB2102B47
:10242000138003D904488021FEF7B6FA15F0010F96
:1024300000D162B6002038BD34EC0008BC09002091
:10244000C409002010B5044618B906484E21FEF70D
:10245000A3FA006B08B1FFF789FD0023E362236351
:1024600010BD00BF45EC0008014900F05DBE00BF93
:10247000940900202DE9F041284B1B6880460E4648
:1024800015460BB19F6817B92548AD212EE01F28CE
:102490003DD838464146FFF7E9FE044655B130B114
:1024A00043682B6083686B60C368AB6002E02860A0
:1024B0006860A86046B335684DB920465CB307F143
:1024C0001C0100F03BFE2046FFF7CEFF1CE0B4B934
:1024D000144800F049FE044650B9FFF71BFE1148AE
:1024E00000F042FE044618B90D485721FEF754FA91
:1024F00084F81080204607F11C0100F015FE65608D
:102500007368A360B368E3600020BDE8F0816FF0FA
:102510001500BDE8F081BDE8F08100BFCC050020CA
:102520005BEC00089409002010B50023FFF7A2FF20
:10253000041E06DAFFF774F8644204604FF0FF30BF
:1025400010BD002010BD00BF0A4A002310B5136063
:102550005360094A1C4613605360084805492044EB
:10256000183400F0E1FDB4F5C07FF6D1044B102221
:102570001A8010BDBC090020C8090020C403002037
:10258000C409002070B504460D46636A20469B6A64
:1025900098470028F9D0636A204629461B6ABDE89F
:1025A0007040184770B583681C69636A1B690E46E2
:1025B0001546984710F1190F4DD1B6F5427F15D049
:1025C00040F209339E4227D040F207339E4242D167
:1025D000EFF3108172B6A28B638B12B21BB29A42D8
:1025E000628BA38B0DDDB4F91E0010E0EFF31081B8
:1025F00072B6228AE38912B21BB29A42E289238A16
:1026000003DC12B21BB2D31A1FE0B4F9120012B2EB
:102610001BB2D31A034418E0EFF3108172B6E289BB
:10262000238A12B21BB29A42A7BF228AE389238A65
:10263000E089A3BFB4F912001BB212B21AB2ADBF47
:10264000D31A03B2D31A1B18013B11F0010F00D1AA
:1026500062B600202B6070BD70B50E4600F12805F3
:1026600000F1300455F8043F4BB11A7906EA020034
:102670005A7902435A7112B1D868FFF7CDFCA542CE
:10268000F0D170BD38B505460C46284608F0E6FA8C
:1026900000280ADA031D06D010F18C0F05D003487C
:1026A0009B21FEF779F9002CEFD038BD90EC0008A3
:1026B0002DE9F84383681C6988461546002C59D0DB
:1026C000002957D004F10A0738460121FFF7DAFF45
:1026D000061E53DB002D43D0E36A1BB1236B002B96
:1026E0004FD101230A3304EB830304F10C0943F8AF
:1026F000048F0021C8F810304846FFF7C3FFE38974
:10270000B4F912201BB201339342A8BF0023228ADE
:1027100012B2934218BF98F80450484618BF05F00B
:10272000020504F1180914BFEDB20025FFF774FC8F
:1027300048460021FFF7A6FF628BA38B12B21BB2A3
:102740009A421EBF98F8043003F001031D43484627
:10275000FFF762FC55B120462946FFF77DFF05E0F3
:10276000D8F8103013B11D60C8F810503846FFF784
:1027700053FC03E06FF01200BDE8F8833046BDE87B
:10278000F8830023C8F810306FF00F06EEE72DE94C
:10279000F843C589B0F912302DB2013504460F4611
:1027A00090469D42A8BF0025238A1BB29D4208D0B7
:1027B000E38962691BB2ADB2D754E5810020BDE860
:1027C000F883B8F1000F23D0EFF3108972B6238A93
:1027D0001BB29D4211D10126636A66705B6A204676
:1027E000314698473146A01DFFF74CFF636A064605
:1027F0005B6A20460021984700E0002619F0010F8F
:1028000000D162B6002ECFDA6FF00300BDE8F88386
:102810006FF00A00BDE8F8832DE9F04783681C6972
:1028200004F1180780460E46384601219146FFF70D
:1028300029FF002851DB00254D4545D2A38B628B33
:102840009BB212B219B28A420ED0226AB4F91E00AB
:10285000525C01339BB219B28842D8BF0023A383D4
:10286000013532700136E7E7002D2DD1D8F8003060
:102870005B0627D4636A20469B6929469847628B8A
:10288000A38B12B21BB29A4216D1EFF3108A72B622
:10289000636A20469B69012198470121A17004F1D8
:1028A0000800FFF7EFFE1AF0010F00D162B6002812
:1028B000C2DA6FF0030507E0636A20469B690121D5
:1028C0009847B9E76FF00A05636A20469B690121C2
:1028D00098473846FFF7A0FB2846BDE8F0872DE96A
:1028E000F04183681C6904F1040840460121FFF7A8
:1028F000C9FE061E2FDB2578013515F0FF0525D012
:10290000012D21D1EFF3108772B6E3782BB9636AFA
:1029100020461B689847061E09DB636A20469B68B1
:102920009847061E636A07DA5B682046984717F0E7
:10293000010F00D162B60BE09B6920460121984748
:1029400017F0010F00D162B6257001E06FF0170695
:102950004046FFF761FB3046BDE8F0812DE9F84FB6
:10296000836805460E4617461C699146FEF7ECF84B
:1029700028B1EFF3108872B606EB07090DE008F0F6
:10298000DFF880460028F4D118E0E37816F8015B00
:1029900033B920462946FFF7F5FD4E45F5D106E04F
:1029A0000A2DF6D120460D21FFF7ECFDF1E718F0D6
:1029B000010F00D162B63846BDE8F88F04F10C0A69
:1029C00050460121FFF75EFE00283BDB636A2D685D
:1029D0005B6A41462046984785F04005C5F380155F
:1029E000B846B8F1000F1ED0E37816F801BB3BB92A
:1029F000204659462A46FFF7CAFE002810DA09E0A9
:102A0000BBF10A0FF4D120460D212A46FFF7BFFE85
:102A10000028EDDAB845814605D2C8EB070902E087
:102A200008F1FF38DDE7E289238A12B21BB29A422D
:102A300004D0636A20465B6A012198475046FFF73D
:102A4000EBFA4846BDE8F88F2DE9F04101220C462B
:102A5000074601F10C00002100F0BBFB04F1180057
:102A60000021012200F0B5FB201D0021012200F011
:102A7000B0FBA61D00210A46304600F0AAFB04F177
:102A8000080500210A46284600F0A3FB012204F1B4
:102A90000A00002100F09DFB3046002100F0B4FB4D
:102AA0002846002100F0B0FB3846234603494FF486
:102AB000DB72BDE8F04105F0C9BB00BF70EC000857
:102AC00010B58378044623B1002383700830FFF7E4
:102AD000A3FA20460121BDE81040BDE510B54378BA
:102AE000044623B1002343700630FFF795FA2046D1
:102AF0000221BDE81040AFE510B5002104460630C4
:102B000008F0B2F904F10800002108F0ADF904F171
:102B10000C00012108F0A8F904F11800012108F0C7
:102B2000A3F904F10A000121BDE8104008F09CB9A6
:102B30002DE9F04183681C69261D054600213046B9
:102B4000FFF7A0FD2378012B02D9013B237060E041
:102B50000021636A21709B69204698472D6815F013
:102B6000400542D104F10C0738460121FFF78AFDE8
:102B700000283ADBEFF3108872B6E289238A12B29A
:102B80001BB29A4212D00125636A65705B6A2946BE
:102B9000204698472946A01DFFF774FD636A054645
:102BA0005B6A204600219847002DE6DA18F0010FF5
:102BB00000D162B61A4B002DD3F800801D460DDA05
:102BC0003846FFF729FA10E04FF47A7008F0A8F9B8
:102BD0002B68C8EB0303B3F5C87F06D2636A2046AF
:102BE000DB6A98470028EFD0EAE7EFF3108572B66A
:102BF000636A2046DB689847E3781BB9636A20461E
:102C00005B68984715F0010F00D162B62046FFF7C8
:102C100073FF3046FFF700FA0020BDE8F08100BFE7
:102C2000200B002070B504460025E289238A12B2E9
:102C30001BB29A42AEB20BD1E289238A12B21BB206
:102C40009A4220D1636A20465B6A002198471AE0C5
:102C5000636A20469B6A98470028EDD0238A626AFF
:102C60006169126A1BB22046C95C9047238AB4F995
:102C7000122001339BB223821BB29A42DCBF002395
:102C800023820135D1E726B12046BDE87040FFF729
:102C900025BF70BD2DE9F341448BB0F91E3024B23D
:102CA000013407469C42A8BF002400261FFA86F87C
:102CB0007B6A3846DB699847B8B1BD8B7B6AADB299
:102CC0005B69384601A92DB29847AC42F0D07B8BA6
:102CD0003A6A1BB20136D054A3B27B83B7F91E30D7
:102CE00001349C42A8BF0024E0E7B8F1000F02D0F5
:102CF0003846FFF7E5FE02B0BDE8F08110B5074B9E
:102D00001B6813B90648522103E09B681BB90448AD
:102D10005E21FDF741FEBDE8104018475400002039
:102D2000A0EC0008022801D100F002B80020704792
:102D300008B5074802214FF4D27200F055F8002878
:102D400004DB0448BDE8084000F008B808BD00BF37
:102D5000E8E50008B8EC00080020704708B510B995
:102D60000848982107E003681BB143680BB18368EA
:102D70001BB904489D21FDF70FFE034B186000208E
:102D800008BD00BFD8EC00085400002038B5094C3D
:102D900008F008F9B4F906308342054607D0201D33
:102DA00007F05CFF002804DBE580002038BD6FF0F1
:102DB0000A0038BD4405002008B508F0F3F8084BB8
:102DC000B3F90620824203D00648B021FDF7E4FDA6
:102DD0004FF6FF72DA80181DBDE80840FFF71CB9F6
:102DE00044050020F2EC00082DE9F843234C237839
:102DF00080460F461646A1468BB1022B03D02048D1
:102E000040F24D1104E0A06920B91D4840F25B1169
:102E1000FDF7C2FD414600F0C2FA80B1F5E7A369B3
:102E20001BB1174840F26311F2E76170628000F055
:102E3000C3FAA06118B9124840F26711E8E70F4CD5
:102E4000012504F1080041463A46334689F800500E
:102E500004F08EFC002803DA02232370BDE8F88317
:102E6000201D00212A4600F0B4F94FF6FF73E380DD
:102E7000042323700020BDE8F88300BF4405002030
:102E8000F2EC000838B5FDF75FFE60BB08F08AF889
:102E900048B3194C2378042B254601D1002038BDB6
:102EA000012B23D9032B24D0FEF7A4FC2378022B7B
:102EB0000FD1A06918B9114840F2131111E06178DF
:102EC0006288FFF791FF041E03DAFEF7ABFC204691
:102ED00038BDFEF7A7FC2B78042BDFD0074840F263
:102EE0001F11FDF759FD6FF0570038BD6FF00A0054
:102EF00038BD6FF0050038BD44050020F2EC000835
:102F00002DE9F84304468946FFF7BCFF002845DB5E
:102F1000FFF73CFF002841DB4F4626467FB1237870
:102F20000D2B02D00A2B07D133E0012F19D963787A
:102F30000A2B16D10134013F0134013FEEE7A21BF9
:102F400004D1FFF739FF4846BDE8F88314483146FD
:102F500005F0C8F8051EF4DAFFF72EFF2846BDE895
:102F6000F883B4EB060806D00D483146424605F01A
:102F7000B9F8051EF0DB23780A2B06D10848094969
:102F8000022205F0AFF8051EE6DB08F10108464411
:102F9000D2E7012FE5D963780D2BCAE7BDE8F883A6
:102FA0004C050020F0EC000837B50546FFF76AFF36
:102FB00000281BDB0D2D18D0FFF7E8FE002815DBDD
:102FC0000A2D13BF02A90A480A4901F8015D0EBF84
:102FD00002220748012205F085F80446FFF7ECFEBF
:102FE00014EA240038BF284600E0284603B030BD6C
:102FF0004C050020F0EC00080020704738B504466E
:1030000018B90E485121FDF7C7FCB8300021012244
:1030100000F0DFF804F1BC0504F5EE742846002149
:10302000242200F0ACF94FF0FF332B602846243502
:1030300000F024F8A542F1D138BD00BF09ED000829
:1030400038B5044618B90C488721FDF7A5FCB830FF
:10305000FEF7D5FF04F1C00504F5F0742846FEF72D
:10306000CEFFA86820B1AB7E1B0701D4FEF77EFF20
:103070002435A542F2D138BD09ED000810B5002174
:1030800004460122043000F0A4F84FF6FF73E380F9
:103090000023A36010BD38B5044607F083FFB4F9E0
:1030A00006308342054607D1A368013315E0FEF7D9
:1030B000B7FA0368042B05D1201D07F00BFE00288A
:1030C000F5DB08E0FEF7ACFA03688C2BF4D004487B
:1030D0006E21FDF761FCE5800123A36038BD00BFD0
:1030E0001BED000838B50446C58807F05BFF2DB21C
:1030F000854202D00B48892111E0A368012B02DD33
:10310000013BA36038BD4FF6FF73E3800023A3604B
:10311000201DFEF7B1FF002803DA02489921FDF7D0
:103120003BFC38BD1BED0008002303600B680BB9A6
:10313000086001E04B681860486070470B6893B105
:1031400088B1984209D103680B604B6898420AD154
:1031500000234B60704713462AB11A688242FAD1A5
:10316000184600F00BB8704703682BB11A6802606C
:1031700002B9426000221A60184670470A68036864
:103180005AB153B14A689A4214BF196848604FF067
:1031900000020CBF026001601A60184670470023ED
:1031A00043600B6803600B6813B9086048607047A0
:1031B000586008607047426803680AB90B6000E015
:1031C00013600BB94A6000E05A600023036043605B
:1031D000704730B1B2F5004F03D292B202800020A6
:1031E00070476FF01500704708B530B1B2F5004F69
:1031F00003D292B20280002008BDFEF711FA162316
:1032000003604FF0FF3008BD08B518B908485C21CD
:10321000FDF7C2FB002908D004DB022902DC6FF0B5
:10322000570008BD6FF0150008BD084608BD00BF77
:103230002EED000810B5FFF7E7FF041E05DAFEF7D4
:10324000EFF9644204604FF0FF34204610BD00BF28
:103250001F2908B506D9FEF7E3F9162303604FF0DE
:10326000FF3008BD026801238B4013430360002038
:1032700008BD1F2908B506D9FEF7D2F91623036049
:103280004FF0FF3008BD012303FA01F2036823EA7F
:1032900002030360002008BD1F299DBF0068C840CD
:1032A00000F001004FF0FF307047F8B50646D0B18E
:1032B00000F0E6F8341D06F5927700252368002B10
:1032C0000ADBA38B9B0707D52046012100F00EF8EF
:1032D00035EA200528BF05462434BC42EED13046ED
:1032E00000F0E6F800E005462846F8BDF8B50368AA
:1032F000002B05460F463FDB838B9B073CD5FFF732
:10330000CAFEE86880B36C69844206D12846FFF79C
:10331000E9FE6B69E868181AF8BDAE69864225D1E6
:10332000A41B28683146224604F004FF002808DA6E
:10333000AB7F43F00203AB77FEF772F900684442BB
:1033400015E00644241A1FB9EB686B61344402E0AF
:10335000002CE6DCF8E7A642D8D06B695A1C6A61FB
:1033600016F8012B1A70F6E7044600E00024284600
:10337000FFF7B8FE2046F8BD6FF00800F8BD024424
:103380000346934202D003F8011BFAE77047421E3E
:1033900011F8013B02F8013F002BF9D170470138C9
:1033A00010F8012F11F8013BD31A13F0FF0301D1DC
:1033B000002AF5D158B2704738B5054650B100F033
:1033C0000CF8013000F090F8044620B12946FFF7D0
:1033D000DEFF00E00446204638BD03461A460133AE
:1033E00011780029FAD1101A704710B5024403462B
:1033F000934205D011F8014B03F8014B002CF7D193
:10340000934203D0002103F8011BF9E710BD10B56A
:10341000431E0A44914204D011F8014B03F8014FB6
:10342000F8E710BD07B5074B1B780341DB0705D54F
:1034300002AB43F8042D1A4608F0EAFC03B05DF82D
:1034400004FB00BF580000200EB403B503AA52F8D5
:10345000041B0192FFF7E6FF02B05DF804EB03B036
:10346000704700BFEFF3108172B6044B1A781870E2
:1034700011F0010F00D162B61046704758000020CD
:1034800010B50446204607F025FC00280DDAFEF7AB
:10349000C7F80368042BF5D0FEF7C2F803688C2B3D
:1034A000F0D002484521FDF777FA10BD4AED00083B
:1034B000FEF7E2BD03460A460148194600F04FB840
:1034C000D0090020014800F079B800BFD0090020E1
:1034D000014800F0ABB800BFD00900200146014808
:1034E00000F0F0B8D00900200146014800F054B9BE
:1034F000D00900200146014800F09AB9D009002007
:10350000F0B50A4401F10F0525F00F058168C36984
:1035100022F00F02C5EB020E7144816000EB8303C1
:1035200029460827DD6041F8087BDC684FF0004C35
:10353000C4F804C0AEF11004AC60A2F108044F60FE
:103540005C6142F8087C5A69AB6843EA0C0353603B
:10355000C3690133C361BDE8F04000F08BB870B5BA
:103560000E46002104468160C161154620304FF4AB
:103570009872FFF704FF04F1300304F5A872A3F179
:103580001001D96043F8083C10339342F7D120462C
:1035900000F008F8204631462A46BDE87040FFF7A3
:1035A000AFBF000010B5002104460122FFF711FE55
:1035B0004FF6FF7363800023636010BD38B5044687
:1035C00007F0F0FCB4F902308342054602D163688B
:1035D000013306E0204607F0B1FB002803DB6580DD
:1035E00001236360002038BD38B5044607F0DAFCDB
:1035F000B4F902308342054604D16368013310E018
:10360000031D05D1204607F065FB002807DAF7E720
:103610008C3004D004484FF48271FDF7BDF9658009
:103620000123636038BD00BF5FED000838B5044674
:10363000458807F0B7FC2DB2854203D00C484FF403
:10364000977112E06368012B02DD013B636038BDB6
:103650004FF6FF736380002363602046FEF70CFD86
:10366000002804DA02484FF4A171FDF795F938BD3E
:103670005FED000838B5054608680C4600F015F8FF
:10368000821C05EB021205EB0015AB6A3BB1196811
:1036900029B12068814202D21A469B68F6E79460FD
:1036A000E260A36003B1DC6038BDB0F5800F07D2E3
:1036B00003090020012B02D901305B08FAE77047AB
:1036C0001220704770B505460C46002961D0FFF7FF
:1036D0008BFF54F8043C002BA4F1080102DB2D48B9
:1036E00057210DE054F8080C23F0004344F8043C43
:1036F0000B185A6822F00046864203D025485E2106
:10370000FDF74AF9002A18DB1A68D8681A4410B97C
:1037100020486E21F4E79E688660986808B1DE68EC
:10372000C660186854F8083C034444F8083C5068E4
:1037300000F0004003435360134654F8040C0A1A87
:1037400020F000401668B04202D012488121D7E72D
:103750005068002815DBD16811B90E488821CFE7E1
:1037600090688860916809B1D068C86054F8080C06
:10377000116801441160586800F00040014359602D
:1037800011462846FFF776FF2846BDE87040FFF750
:103790004DBF70BD70ED000870B50646002942D0DF
:1037A00001F1170525F00F058D4202D21F485B215C
:1037B00016E0FFF719FFB5F5800F03D22846FFF793
:1037C00074FF00E0122006EB0010846A34B3236813
:1037D000AB4201D2A468F9E7E3681BB9134888211A
:1037E000FDF7DAF8A2689A60A3680BB1E268DA60C4
:1037F0002368581B0F280CD96119605123444D6070
:1038000025605A6802F0004202435A603046FFF7D2
:1038100031FF636843F00043636008343046FFF7CC
:1038200005FF204670BD084670BD00BF82ED000850
:1038300038B50D46FFF7B0FF044618B100212A46FF
:10384000FFF79DFD204638BD044B1B680360C3F1A4
:10385000005303F500330B60704700BF64E50008B8
:103860004FF080504FF480310AF098B830BF704765
:1038700038B5C36A05460C462BB1836A8B4202D029
:10388000114600F07BF8EB6A1BB92046FFF72CFECF
:10389000E862EB6A53B11A1F144424F00704C3F121
:1038A00004032C631C44AC62002038BD4FF0FF3091
:1038B00038BD000008B5074C2368EFF3108372B6DB
:1038C00007F044FB2468204607F0ACF904F18000BF
:1038D00000F01EF9CC05002008B5094B00221A6043
:1038E000FFF7BEFFFDF73AFA00F023F908F030FBCE
:1038F000FCF7ECFF0120BDE80840FFF713BA00BF5A
:10390000B805002010B50446002170305C22FFF796
:1039100036FD236BC4F88030236923F00103C4F81B
:10392000C4304FF08073C4F8C8306FF00603C4F899
:10393000A83010BD70B50F4D2C6806F0BDFFC0B1AA
:103940000D4E3168803449B1204600F015F92C68DD
:103950002046803407F066F9346070BD2D68284633
:1039600007F060F9204605F18001BDE8704000F0E5
:10397000D4B870BDCC050020B805002010B50446B1
:10398000C06A38B10AF02CF810B1E06AFEF7EEFA1E
:103990000023E3620023A36210BD000010B500B154
:1039A00019B91F486521FCF7F7FFEFF3108472B6D1
:1039B000026F002A2FD11B4A1268904217D11A4A6F
:1039C00012680AB9884726E00167516C416751685F
:1039D0008167916CC16715495164012151604FF0B5
:1039E000807191648030114600F0C6F813E0D0F881
:1039F000C4204267D0F884208267D0F8C820C2670C
:103A00000A4AC0F8C4200122C0F884204FF0807216
:103A10000167C0F8C82014F0010F00D162B610BDD4
:103A200096ED0008CC050020B8050020313A0008CA
:103A300030B5124B1C68236FE56E95B01BB910486A
:103A40005F21FCF7A9FF01A804F1800100F094F8C0
:103A5000F02383F3118862B6236F20469847EFF373
:103A6000108372B6636FE5661293A36F0293E36FE0
:103A700013930023236701A800F04AF8CC05002027
:103A8000B5ED0008C36A073121F0070163B1826A0E
:103A90008A4281BF036B5B1A511A036383BFC0F86C
:103AA00080308162043300231846704770B5837EEE
:103AB000144D043B042B06462C6803D912484E21B2
:103AC000FCF76AFF06F02AFF304606F09BFEC0B105
:103AD0000E4E3168803449B1204600F04DF82C6814
:103AE0002046803407F09EF8346070BD2D6828466B
:103AF00007F098F8204605F18001BDE8704000F01D
:103B00000CB870BDCC050020CDED0008B805002034
:103B100001464FF0010000DF70470A4601464FF0B2
:103B2000020000DF7047000008B507F07FF80020B2
:103B300008BD08B50B4A0C49136823F07F4343F0D6
:103B400000431360094B0A4A1A600F200022FDF758
:103B500043FB084B07221A600F20BDE80840FDF721
:103B600081B900BF20ED00E0293B000814E000E02F
:103B70007FA2190010E000E0814207D0002351F835
:103B8000232040F823200133132BF8D17047000085
:103B900013B5002001A906F08DFF019B642B05D011
:103BA0006423002001A9019306F000FF00F014F83F
:103BB00000F02AF80020014600F02CF8044606F038
:103BC000C3FE044922464C3009F024FB012002B018
:103BD00010BD00BFE6ED000810B5074C074B9C4236
:103BE00009D054F8043B064A9342F7D9054A934258
:103BF000F4D29847F2E710BD7D0901087D0901085C
:103C0000000000087D0901084FF60170002108F04E
:103C100031BB000010B500F007F9044618B905489B
:103C20005521FCF7B9FE00F043F9636A01462046CE
:103C3000984700BF0DEE000800F51A70704770B588
:103C400004460E461546B2B1D0F860323BB1D0F80A
:103C5000640209F057FAD4F8600209F053FAD4F874
:103C60005C322B60D4F858326B60D4F86432AB60AD
:103C7000D4F86032EB600023C4F85862C4F86032B4
:103C800070BD38B50446D0F8605206F05DFE2830AD
:103C9000854208D106F058FE283009F033FA012396
:103CA000C4F8583238BDD4F8600230B109F02AFAAD
:103CB000D4F8600209F0DCF807E0D4F858020028D4
:103CC00003DB012801D003F0ABFD4FF0FF33C4F854
:103CD0005C32C4F858320023C4F86432C4F860324D
:103CE00038BD38B50D460446FFF7CBFF2B68C4F846
:103CF0005C326B68C4F85832AB68C4F86432EB6865
:103D0000C4F8603238BD10B50446FFF7BAFF20464C
:103D1000BDE81040FFF7E2BB0C4608B5FFF7F3FF24
:103D20002046FDF76FFC0EB417B5D0F8603204469C
:103D30008BB9D0F858020E4909F070F8C4F8600247
:103D400030B1D4F85832C4F85C32C4F8640202E0EE
:103D50004FF0FF3006E006AAD4F8640205990192FC
:103D600009F065FA03B0BDE8104003B0704700BF2A
:103D70004BFA000838B5D0F8604205466CB9D0F867
:103D80005802084909F04AF8C5F8600238B1D5F878
:103D90005832C5F85C32C5F86402002038BD4FF0D7
:103DA000FF3038BD4BFA00080EB417B50446FFF7D4
:103DB000E1FF38B906AAD4F860020599019209F02A
:103DC00036FA01E04FF0FF3003B0BDE8104003B019
:103DD000704773B505460E461446FFF7CBFFD0B9C2
:103DE000224630460121D5F8603209F027F9041E39
:103DF0000BDAD5F85862FDF713FC03680093032033
:103E00000749084A3346FFF71FFBD5F8600209F05F
:103E100079F9204601E04FF0FF3002B070BD00BFDD
:103E200030EE00081FEE000810B54FF42A70FFF7BF
:103E300061FB044618B3134B0360134B8360134BB1
:103E4000C360134B4361134B0361134B8361134AEC
:103E5000134B4362C2610223124A80F82B32026282
:103E6000C0F85C3206F070FD01234C30C4F86402E7
:103E7000C4F8583206F068FD2830C4F860022046C5
:103E800010BD00BFA93E0008073D0008D33D000853
:103E9000A93D0008273D0008393C00083F3C0008C8
:103EA000193D0008E33C000808B5FFF7BDFF08BD59
:103EB00073B5044618B91D485721FCF76DFD1C4821
:103EC000D4F8601209F06DF9D4F8600209F01AF91B
:103ED000D4F86012174809F064F9D4F8600209F0C8
:103EE00011F906F031FD064606F02EFD04F51A75AF
:103EF00000F1280340212846321D00F06BF8013004
:103F000004D02046294600F027FEDDE7D4F86442BD
:103F1000FDF786FB0368009320460749074A084BD4
:103F200009F078F9012002B070BD00BF5BEE000817
:103F30004CF0000846F000082BEF000869EE00087E
:103F400075EE000810B508B101B11AB90448B621E0
:103F5000FCF722FD0069BDE8104004F0EBB800BF9B
:103F60007EEE000813B504468DF8071018B909480D
:103F70009621FCF711FD20690DF10701012204F0E3
:103F8000D9F8002803DAFDF74BFB0368042BF2D0C5
:103F900002B010BD7EEE000813B5044648B90C48C7
:103FA0005E21FCF7F9FC0FDAFDF73AFB0368042BFE
:103FB00007D1E0680DF10701012203F0E3FD0028BD
:103FC000F1D14FF0FF3001E09DF8070002B010BDC5
:103FD0007EEE000830B5054687B00C4602B11BB92D
:103FE0000A48E321FCF7D8FC12680492084A0292BE
:103FF0000849094A019103921B68059301A82946C3
:10400000224600F00BF807B030BD00BF7EEE00087E
:10401000653F0008993F0008453F00082DE9F84337
:10402000064614460F4609B1002A04DC334840F224
:10403000DD11FCF7B1FC012A02D10021397059E0F1
:1040400083682F490322984700254FF00008336802
:1040500030469847431C014606D1002D4AD0002324
:104060007B552846BDE8F883B8F1000F09D05B28DE
:10407000EBD1B8F1020F14BF4FF002084FF0000867
:10408000E5E7082801D07F280CD1002DDFD0736828
:10409000304608219847B368194930460322013D4C
:1040A0009847D4E71B2802D14FF00108CFE70A2830
:1040B0000AD16C1C0A21002379553B5530467368A0
:1040C00098472046BDE8F8830D28F2D0A0F12003E0
:1040D0005E2BBCD87855304673689847A81CA04220
:1040E00005F1010901DA4D46B1E707F809804846B4
:1040F000BDE8F8830846BDE8F88300BF8CEE0008F1
:1041000089EE000890F83B3200EBC30393F840328D
:104110009A09032A02D113F0010310D090F83C321F
:10412000184490F83D0283070BD48309022B02D078
:10413000032B01D007E0C04300F001007047184690
:104140007047002070470120704770B5056895F8EA
:104150002932044613B1406803F062FBAB6828467D
:10416000984704F108060025A3689D4205DA56F831
:10417000040FFFF7B3F90135F6E72046BDE87040BC
:10418000FFF7ACB970B5044625460C4E55F80C3F08
:104190000B4932460620FFF757F9A16820682A46E6
:1041A00000F0D4FE0749E368054632460620FFF7D3
:1041B0004BF92046FFF7C9FF284670BD9EEE000868
:1041C0005EF0000869F0000810B590F83B22033259
:1041D00000EBC20292F828329B09012B0CD1B1FAF4
:1041E00081F1002380F82A3292F82802490961F30C
:1041F000000082F8280222E0022B0CD1002380F874
:104200002A32C91A92F8284218BF012161F300042A
:1042100082F8284213E090F83C22024492F83D32A2
:104220009B09012B0DD1002380F82A3292F83D42E0
:10423000C4F38000414061F3000482F83D42184617
:1042400010BD80F82A12081C18BF0120404210BD82
:104250002DE9F0470C6807460E4690462178254622
:10426000013421B928782C4638B9BDE8F0872E48AA
:1042700009F03FF90028F1D1F4E73E280BD16B7823
:104280003E2B0BBF02350135356035600CBF27482A
:104290002748BDE8F087232803D135600020BDE81A
:1042A000F087222805BF6C1CDFF89490DFF8789027
:1042B0004FF00008A2469AF8001055460AF1010A8C
:1042C00031B92A782B464AB100226B1C2A7005E0CE
:1042D000484609F00EF90028EDD0F2E73360237864
:1042E000242B1ED1B8F1000F02D00123C8F80030F2
:1042F000013420460F49FFF752F848B90E4B97F8A2
:104300002A029A1E002814BF18461046BDE8F087FE
:10431000204605F0FBFE094B002808BF1846BDE803
:10432000F0872046BDE8F087A8EE0008AEEE000852
:10433000ACEE0008B6EE0008B3EE0008B5EE0008DB
:1043400029F700082DE9F04F99B018AF82460C46C6
:10435000302200210CA8FFF712F847F8484D002240
:104360008AF828228AF8292250463946FFF770FF3A
:104370000546002800F00082BC49FFF710F8BC4950
:10438000B0FA80F928464FEA5919FFF708F8B9F151
:10439000000F01D100285CD1504639460022FFF7BA
:1043A00057FF064608B1037823B9DAF81030B1494F
:1043B0005046D9E09AF83C820AEB080393F83D3264
:1043C0009B09012B00F0CC809AF83B420AEBC40316
:1043D00093F84032C3F38113033303F00303012B3B
:1043E00040F2BE80DAF83032002B00F0B980DAF803
:1043F00034B2BBF1000FC0F2B380012C04D9DAF85B
:1044000010309D495046AFE00134B9F1000FE4B2DD
:10441000504614BF01250225FFF774FEE21C00235D
:104420000AEBC2028AF83B428AF83A3292F8283202
:10443000BAF8381265F387130AEBC404594460F3E1
:10444000000382F82832354684F84182C4F84412C9
:104450009CE028468949FEF7A2FF0246F8B9394692
:104460005046FFF7F5FE9AF83B3203330AEBC303DD
:10447000054693F82812C1F38112033202F00302B9
:10448000012A05D9DAF810307D497C4A50466CE0A3
:1044900041F0C00183F82812002877D16DE1284649
:1044A0007849FEF77CFF024600284CD15046394639
:1044B000FFF7CEFE024620B1DAF810306D495046C3
:1044C00013E09AF83B02C31C0AEBC30393F82812CB
:1044D0008C09032C04D0DAF810306949504604E006
:1044E00028B9DAF8103068495046664A3DE0C807F6
:1044F00016D5DAF83002D3F82C1208F0F6FC0028B2
:104500000ADADAF81040FDF78BF80368009350469A
:104510005E495C4A5E4BA04701238AF83A3203E0C9
:1045200041F0010183F828129AF83B32DA1C0AEBB9
:10453000C202013B92F828126FF3871182F8281209
:104540008AF83B3218E19AF83B320AEBC30393F83E
:104550004032C3F38113033303F00303012B15D857
:10456000DAF81030464950462A4698479AF84032C1
:1045700003F03F03002243F001038AF83A228AF84D
:104580003B228AF84032CAF84422EFE028464149EB
:10459000FEF705FF0646002849D150463946324607
:1045A000FFF756FE054670B1037863B13A49FEF74E
:1045B000F6FE024668B950463946FFF749FE054601
:1045C00008B1037823B9DAF810302A495046AEE032
:1045D00001269AF83C420AEB040393F83D329B090A
:1045E000012B04D1DAF81030254950469FE0012C08
:1045F00004D9DAF810302049504698E00134E4B28A
:104600005046FFF77FFD8AF83C425444012294F85B
:104610003D32B0FA80F062F38713400960F3410342
:1046200003F0FE0366F3820384F83D32A5E02846DA
:104630001A49FEF7B4FE024690BB39465046FFF7D2
:1046400007FE9AF83C225244054692F83D329909F9
:10465000012905D0DAF810300949104A504679E0AE
:10466000022161F3871382F83D3286E07DF0000875
:1046700083F00008B8EE0008F7EE000889F00008A3
:10468000D3EE00088CF0000812EF00082BEF0008B2
:1046900091F0000897F000089AF000089CF00008DC
:1046A0002846B749FEF77BFE0246B8B93946504660
:1046B000FFF7CEFD9AF83C325344054693F83D226D
:1046C0009109022905D0DAF81030AE49AC4A5046BB
:1046D00040E042F0C00283F83D224EE02846AA495D
:1046E000FEF75DFE024640BB50463946FFF7B0FD7F
:1046F000054620B1DAF81030A449504610E09AF887
:104700003C220AEB020393F83D32C3F381130233D8
:1047100003F00303012B05D9DAF81030994950460C
:10472000994A17E02AB9DAF8103099495046994A5F
:1047300010E0013A8AF83C221FE09AF83C325344D8
:1047400093F83D329B09012B17D1DAF810308D49CF
:1047500050462A4698479AF83D32002203F03C031F
:1047600062F382038AF83C228AF83D3250460121E6
:10477000FFF72AFD0446E0E100250023CAF82C32A9
:10478000002D00F0948128468349FEF708FE02467A
:1047900098BB0A23CAF82C3250463946FFF758FD19
:1047A0000546002800F083817C49FEF7F8FD0446A9
:1047B00018BB504639462246FFF74AFD0646E0B18F
:1047C00008A9224608F090FDCAF82C0214302728C8
:1047D00004D8089BB34201D01A7832B1DAF810300D
:1047E0006A496D4A50469847C0E750463946FFF738
:1047F0002FFD0546002800F05A815046FFF782FC45
:10480000002800F054810C95012418AE002346F8CE
:10481000403D504639463246FFF71AFD18AB03EBD0
:10482000840343F8300C38B3089B13B30CAB53F834
:104830002490C84619F8011B39B998F80030C3B163
:10484000002308F8013B013409E0554808F051FE07
:104850000028EED0F1E7524808F04BFE20B1C146E7
:1048600018F8011B0029F6D10CAB0B2C43F824904F
:10487000DCD101340A2CC8DD18AB03EB8403002221
:10488000012C43F8302C00F01481671E18AB03EBA9
:104890008708444958F8300CFEF781FD28B90123F8
:1048A0008AF8283248F8300C3C46022C40F301814B
:1048B000A4F1020918AB03EB89073B4957F8300C08
:1048C000FEF76DFD88B901239AF829728AF829321A
:1048D00018AB03EB8404504654F8341C01F03AFC46
:1048E0004C4680464FF026091AE057F8300C2F4905
:1048F000FEF755FD88B901239AF829728AF8293202
:1049000018AB03EB8404504654F8341C01F022FC2D
:104910004C4680464FF0160902E00027B946B846DB
:10492000072C05DDDAF81030214950462A46984711
:10493000CDF8009050460C990CAA434602F084F939
:10494000002804DB504614BF01210021A3E09AF89F
:1049500029329BB3404649464FF4DB7203F0CDF851
:10496000B0F1000B2CDA0C9DDAF81040FCF758FE81
:104970000368009350460F490F4B2A46A04788E032
:10498000A1F00008D3EE0008A6F00008B8EE000879
:1049900012EF000897F00008A9F00008AEF0000838
:1049A000A8EE0008B1F00008ACEE0008AEEE00087A
:1049B00043EF00082BEF000872FA00084FF0FF3BAE
:1049C0009AF8283253B3DAF8003050469847054633
:1049D000E0B13C20FEF78EFD8146A0B1024680E8A2
:1049E000200842F8084F002303920CAA029352F8C1
:1049F0002300FEF7E1FC029B039A0133A34242F835
:104A0000040FF1D126E0AB68284698479AF829327E
:104A1000002B3ED0584602F003FF3AE09AF82932C4
:104A20002BB1DAF81C305046594632469847214699
:104A300050460CAA00F08AFA9AF82932044623B1AB
:104A4000DAF82030504631469847002C21DB50469A
:104A5000002120E09AF8293223B1EB692846594613
:104A600000229847002007A906F024F828B30C9EDE
:104A7000DAF81040FCF7D4FD036800933149324B5B
:104A800050463246A0474846FFF75FFBAB682846D2
:104A9000984750460121FFF797FB0446B8F1000FF5
:104AA0004BD0404601F0ACFB8AF8297245E0002467
:104AB00043E00027B946B8463AE7DAF82C42002C22
:104AC00011D0079B4FF00200A3EB040405DA07F0B6
:104AD0003FFDA042A8BF204604E007F045FDA042EC
:104AE000B8BF20460790304607F0F4FC022130465C
:104AF00007F0FCFC07A9304607F001FD0DF1160098
:104B00003146124A4B4605F027FC38B10090DAF8DE
:104B100010400C490C9A0E4B5046B3E7BDF91600F5
:104B200005F050FD079A0092BDF91630DAF81440EE
:104B300008490C9A5046A04789E7204619B0BDE8BD
:104B4000F08F00BF2BEF0008B3F00008854100088C
:104B5000C1F00008D0F000082DE9F8430023054615
:104B6000884680F83A320C460F4695F83A92B9F1E9
:104B7000000F34D1C8EB0403A5F838322046194998
:104B800008F0C3FC235C22182BB928463946BDE83F
:104B9000F843FFF7D7BB0A2BF7D0232BF5D03B2BDD
:104BA00002F1010009D1064682F8009028463946F4
:104BB000FFF7C8FBA0B934460FE0222108F099FCAA
:104BC00048B9094A2C69094928461346A0474FF0BD
:104BD000FF30BDE8F883441C3E463746C5E7002059
:104BE000BDE8F88360EF000829F7000865EF0008CA
:104BF00090F83B32033300EBC30393F82822920969
:104C0000032A01BF93F8292280F83C2293F8282236
:104C10006FF3000208BF83F828220020704700BF0E
:104C200008B503490369126898474FF0FF3008BD83
:104C3000CFEF0008002070474FF0FF30704708B5F5
:104C40000021436A9847CB68D0F814C00A4613B1D4
:104C50000249126860470249126860477CF3000805
:104C600085F30008F8B50F4D04460F46286880B15B
:104C70003946FEF794FB064648B963690A4920465F
:104C80003A46984720462946FFF7DDFF08E01035F1
:104C9000ECE72369054920463A4698474FF0FF362E
:104CA0003046F8BDDCF000088BF30008CFEF0008B9
:104CB00001292DE9F74F04460D46164674DD50686C
:104CC0008D49FEF76CFB10B10122002304E0022D98
:104CD00000F00C810222012356F82250002B61D0F3
:104CE0006369864920469847636985492046984705
:104CF00063698449204698476369834920469847F9
:104D000063698249204698476369814920469847EC
:104D1000636980492046984763697D4920469847E2
:104D200063697D49204698476369764920469847DC
:104D300063697A49204698476369794920469847CC
:104D400063697349204698476369764920469847C6
:104D500063696C49204698476369734920469847C0
:104D600063696F49204698476369694920469847B7
:104D700063696C492046984725B120462946FFF7CC
:104D800071FFB5E063696949694D204698472B6812
:104D90002BB129462046FFF756FF1035F7E70025CF
:104DA000A94652E0002DE8D162492046FFF75AFF9C
:104DB000636961492046984700252E465C4FE859B3
:104DC000FEF70BFB1035864238BF0646B5F5247F4B
:104DD0000197F3D10236502E94BF502701274FF090
:104DE000000A98BFB7FBF6F707F12809B9FBF7F9F6
:104DF000CA45D4D06369514920469847D3464FF0FD
:104E00000008B84563691AD0BBF1280F17D801997B
:104E10004FEA0B1220468D5849492A4698472846A2
:104E2000FEF7DBFA0546B54205D2636945492046DF
:104E300098470135F7E708F10108CB44E1E7204640
:104E40003D4998470AF1010AD2E7484605F08FF834
:104E500038B1FEF7C2FA854209F1010938BF0546AB
:104E6000F3E705F1020ABAF1500F636936492046AB
:104E700096BF50260126B6FBFAF6984709F1FF3592
:104E800000273544B5FBF6F5AF4231D063692B49B5
:104E900020469847B8464FF0000BB34520D0C84590
:104EA0001ED2404605F063F8844662466369244991
:104EB000CDF804C020469847DDF804C06046FEF7F0
:104EC0008CFA0246524507D263691E490192204678
:104ED0009847019A0132F5E70BF1010BA844DCE792
:104EE00063691549204698470137CDE70546F7E63F
:104EF000002003B0BDE8F08F95F3000898F3000898
:104F0000ACF30008E7F30008EBF30008F7F3000840
:104F1000FFF3000818F4000820F4000827F4000844
:104F200036F400083CF4000845F4000854F4000886
:104F3000DCF000086CF40008E5F30008BDF9000897
:104F400014070108BEF9000871F400082DE9F041CA
:104F5000144C176805460E4690462068D0B1394675
:104F6000FEF71DFAA0B9237A9E4203DA2B690E4997
:104F7000284605E0637A9E4208DD2B690B492846E6
:104F80003A4698474FF0FF30BDE8F081636802E091
:104F90001034E2E7064B284631464246BDE8F04170
:104FA000184700BFDCF0000808F0000843EF0008D5
:104FB000214C0008F7B505460E4608460F4917462E
:104FC000FEF7EDF905F1280438B920464FF40071D9
:104FD0000B4A3B4607F0C8FB07E0009720464FF41A
:104FE0000071084A334607F0BFFB0023204685F8CE
:104FF000A93003B0BDE8F040FEF7DEB986F700083F
:105000008AF7000888F700082DE9F0431E46B30729
:105010008DB004460F46154600F083805AB1013228
:10502000FFF7C8FF05A9814602F0CCFF804648463D
:10503000FEF754FA04E0084605A902F0C3FF8046D3
:10504000B8F1000F0CD02569FCF7EAFA0368009369
:1050500020464649464A474BA8474FF0FF3082E07A
:10506000B10757D5444A5168106802AB03C3118990
:10507000927A9A701980059B03F4F042B2F5C05FF2
:1050800001D1622212E0B2F5006F01D163220DE07E
:10509000B2F5805F01D1642208E0B2F5205F01D152
:1050A0006D2203E0B2F5005F02D03F228DF80820A8
:1050B000DA0544BF72228DF80920180644BF772212
:1050C0008DF80A20590644BF78228DF80B209A06E5
:1050D00044BF72228DF80C20D80644BF77228DF889
:1050E0000D20190744BF78228DF80E205A0744BFBF
:1050F00072228DF80F20980744BF77228DF8102078
:10510000D90744BF78238DF81130204663691B49C5
:1051100002AA9847F20704D563691949069A2046FE
:1051200098476369ADB16E1C2046144932469847D2
:105130002B781B0709D530461249FEF730F920B10C
:1051400030461149FEF72BF940B963690F492046F3
:1051500007E020460E493A46984703E063690D4947
:105160002046984700200DB0BDE8F0832BEF0008E3
:1051700011F600088EF700089DF7000813070108D4
:1051800093F7000898F7000897F70008E5F3000880
:1051900086F300089AF70008F7B51F46137803F066
:1051A000080305460E4603F0FF045BB3541C20467B
:1051B0001649FEF7F4F820B320461549FEF7EFF83C
:1051C000F8B1314622462846FFF7F4FE06466B69E1
:1051D0001049324628469847009728460E490F4BFB
:1051E000324601F0D3FC044660B9009728460A49CC
:1051F0000B4B324601F0CAFC04463046FEF76EF90E
:1052000000E00024204603B0F0BD00BF98F700087E
:1052100097F70008A8F7000811F6000809500008E1
:1052200099510008F8B5064650680F46144607F035
:1052300037F8022F05460FDDA768FEF7CEF80446C3
:105240003846FEF7CAF8241A002C05DD281939461D
:10525000FEF7A5F800B928557369034930462A4678
:1052600098470020F8BD00BF87F3000810B504463A
:10527000506807F039F863690249024620469847AA
:10528000002010BD87F300082DE9F8430646894643
:105290001746002401254D451ADACCB9304657F897
:1052A000251000F057FF804638B933690A493A683B
:1052B000304698474FF0FF3408E0304639684246A0
:1052C00001F070FB0446404600F09AFF0135E2E72A
:1052D0002046BDE8F88300BF9EEF00082DE9F04F9F
:1052E0008DB051680446154600F034FF029038B97D
:1052F000236962492A68204698474FF0FF36B9E093
:10530000012102F0FAFBB0F100090DDA26692D68DF
:10531000FCF786F90368009320465949594B2A4601
:10532000B0474FF0FF369DE02046A96800F012FF1D
:10533000074638B9236951492A68204698474FF0F3
:10534000FF368CE005A902F03DFE064628BB059B12
:1053500003F4F043B3F5805F18D1384601F046FC02
:10536000686806F09DFF394602462046FFF722FE98
:10537000804628B9236941492A682046984775E044
:10538000384600F03DFF4746262109E0B3F5005FAF
:105390000CBF26210221804602E026214FF00008A2
:1053A00038464FF4DB7202F0A8FBB0F1000A19DABC
:1053B0002D68D4F810A0FCF733F903680093204659
:1053C0002F49304B2A46D04743E016DB504659461A
:1053D0001A46039302F0AEFE00281FDB039B1B1A44
:1053E000002BF3DC04F1280B484659464FF40072B9
:1053F00002F0C8FB031EE8D127E0FCF711F90368AF
:10540000D4F810B0042B10D02D68FCF709F903680C
:10541000009320461A491C4B2A4614E0FCF700F979
:105420000368D4F810B0042B04D1204617492A6829
:10543000D8470BE02D68FCF7F3F803680093104998
:10544000134B20462A46D84700E01E46504602F03D
:10545000E7F9B8F1000F09D04046FEF73FF848469B
:1054600002F0DEF9029800F0CBFE03E0384600F0CF
:10547000C7FEF4E730460DB0BDE8F08F9EEF0008A0
:105480002BEF000872FA00082DFF00087EEF0008DD
:10549000ADF700082DE9F0434FF000098BB0054649
:1054A0000F4690464E464A4A3846414608F0A4F810
:1054B000421C044617D06C2C06D0732C07D0522CFB
:1054C00008D146F00406EEE746F00306EBE746F0A7
:1054D0000106E8E72B693F49D8F80020284698479D
:1054E0004FF00109DFE7B9F1000F6CD13A4B1B68AF
:1054F0005A1CBA4206DA2B693849D8F800202846E7
:10550000984760E0BB4203DB00F016FE014601E075
:1055100058F82310284600F01DFE074640B92B69B5
:105520002F49D8F80020284698474FF0FF304BE02D
:10553000FDF753FF01383844C31B002B06DD037809
:105540002F2B03D1002300F80139F5E7384603A9D2
:1055500002F038FD00280EDA2C69D8F80060FCF75C
:105560005FF80368009328461E491F4B3246A04748
:105570004FF0FF3424E0039B03F4F043B3F5805F66
:1055800006D02846394600223346FFF73DFD16E097
:105590006B6916493A4628469847009628461449AA
:1055A000144B3A4601F0F2FA044648B9730707D59E
:1055B000009628460E49104B3A4601F0E7FA044699
:1055C000384600F01DFE20460BB0BDE8F08300BF5A
:1055D000B3F70008B8EE00086000002043EF0008B1
:1055E0009EEF00082BEF00088EF70008A8F70008D0
:1055F00011F6000809500008995100082DE9F341FF
:1056000051680546164600F0A5FD0746A8B140F2D0
:10561000FF1102F0A1F9041E0BDA3668D5F81080EC
:10562000FBF7FEFF0368009328460749074B324605
:10563000C047384600F0E4FD01E04FF0FF3420465B
:1056400002B0BDE8F08100BF2BEF000858F600085B
:105650002DE9F74351680446164600F07BFD0746E6
:1056600038B9236918493268204698474FF0FF300F
:1056700026E02046B16800F06DFD804638B9236908
:1056800011493268204698474FF0FF3514E03846FC
:10569000414602F085FA051E0BDA3668D4F8109000
:1056A000FBF7BEFF0368009320460849084B3246CB
:1056B000C847404600F0A4FD384600F0A1FD28464A
:1056C00003B0BDE8F08300BF9EEF00082BEF000899
:1056D000B7F700082DE9F34151680546164600F07A
:1056E00039FD074698B102F095FC041E0BDA3668C6
:1056F000D5F81080FBF794FF03680093284607490C
:10570000074B3246C047384600F07AFD01E04FF0C3
:10571000FF34204602B0BDE8F08100BF2BEF000847
:10572000BEF700082DE9F34151680546164600F022
:1057300011FD074698B102F075FB041E0BDA3668BE
:10574000D5F81080FBF76CFF0368009328460749E3
:10575000074B3246C047384600F052FD01E04FF09B
:10576000FF34204602B0BDE8F08100BF2BEF0008F7
:10577000CCF6000806CA01F0C9BD2DE9F04FC3B050
:1057800051680446154600F0E5FC064638B9236921
:1057900044492A68204698474FF0FF347EE020466F
:1057A000A96800F0D7FC074638B923693D492A6843
:1057B000204698474FF0FF346DE03046012102F05B
:1057C0009CF9B0F100080EDAD4F810802D68FBF7D0
:1057D00027FF0368009320463349344B2A46C047CD
:1057E0004FF0FF3454E03846012102F086F9B0F161
:1057F00000090EDAD4F810902D68FBF711FF03684A
:10580000009320462849294B2A46C8474FF0FF34C9
:105810003BE04FF0000B02A98022404602F0B2F9B3
:1058200022A982468022484602F0ACF9BAF1000F64
:1058300001DB00280CDA2D68D4F810A0FBF7F0FE8D
:105840000368009320461849194B2A46D04717E0B1
:105850005045D4BF8344D344824505D023691549BC
:1058600020465A4698470BE002A822A9524607F064
:1058700021FE0028F2D1BAF17F0FCCDC044601E012
:105880004FF0FF34484601F0CBFF404601F0C8FF1F
:10589000384600F0B5FC304600F0B2FC204643B07C
:1058A000BDE8F08F08F000082BEF000872FA00083E
:1058B0002DFF0008C5F700082DE9F0438DB007461D
:1058C0008946144603A800212422FDF758FD4FF411
:1058D0000073ADF8263000254FF0FF330397069391
:1058E0004FF001082E46C8454DDA54F8040F874999
:1058F000032207F025FE50B916B13046FDF7EEFD44
:1059000021683846033100F025FC064638E020685F
:105910007F49032207F014FE50B915B12846FDF760
:10592000DDFD21683846033100F014FC054627E010
:1059300078492068032207F003FE0146206831B948
:1059400003300A2207F0D0FCADF8260018E07249B7
:10595000062207F0F5FD0146206829B906300A2223
:1059600007F0C2FC06900BE06C49052207F0E8FD49
:10597000014628B920680A22053007F0B5FC0890D6
:1059800008F10108AFE706B14DB93B696449654AC2
:10599000384698474FF0FF34002E40D03CE0BDF829
:1059A0002600FDF7A1FD0B9028B93B695E495D4AD1
:1059B0003846984711E03046012102F09EF8002851
:1059C00004900DDA039C2769FBF72AFE0368009315
:1059D00020465649534A564BB8474FF0FF341BE018
:1059E000284626214FF4D27202F087F8002805904D
:1059F0001BDA039C2769FBF713FE0368009320461C
:105A00004A49484A4A4BB8474FF0FF34049801F0DE
:105A100007FF0B98FDF762FD304600F0F1FB002D0B
:105A200070D0284600F0ECFB6CE0002307939DF853
:105A30002430002B61D1069C002C5FD00B9CADF86C
:105A40002830BDF82620BDF828300498D21A214607
:105A500002F098F8021E07DA524203980092046995
:105A60003249304A334B37E0BDF82830BDF82610B4
:105A700013449BB29942ADF8283014440AD89DF8DB
:105A80002420002B08BF42F001028DF82420002AB8
:105A9000CDD102E0002AD4D1F1E7BDF8262093420F
:105AA00004DA0B9A0021D1540133F6E7089B079AD8
:105AB0009A421FD30B9F0024BDF826200598394633
:105AC000121B02F037FB031E0ADA5B4203980093B5
:105AD00004691649134A184BA0474FF0FF340DE0F4
